:100000000C943E000C945B000C945B000C945B0021
:100010000C945B000C945B000C945B000C945B00F4
:100020000C945B000C945B000C94EF040C945B004C
:100030000C945B000C945B000C945B000C945B00D4
:100040000C945B000C945B000C945B000C945B00C4
:100050000C945B000C945B000C945B000C945B00B4
:100060000C945B000C945B00426F61726420496EDB
:10007000697469616C697A65640D0A0011241FBE98
:10008000CFEFD8E0DEBFCDBF11E0A0E0B1E0E2E20B
:10009000FFE002C005900D92A835B107D9F721E025
:1000A000A8E5B1E001C01D92AC36B207E1F70E94AD
:1000B000D9040C948F070C94000020910401309116
:1000C00005012331310551F02F5F3F4F309305017A
:1000D00020930401F901E85AFE4F80830895CF92DE
:1000E000DF92EF92FF926A017B010196A0E0B0E0FF
:1000F000880F991FAA1FBB1F880F991FAA1FBB1F1C
:100100009C01AD01220F331F441F551F220F331FC7
:10011000441F551F60E074E284EF90E00E942407C2
:100120002C193D09D901BB2324F4AA27BB27A21B04
:10013000B30B24E630E00E947407A70196010E94E9
:100140002407C901FF90EF90DF90CF900895CF92E0
:10015000DF92EF92FF92CF93DF936B017C01DC0182
:10016000CB01880F991FAA1FBB1F880F991FAA1FB9
:10017000BB1F9C01AD01220F331F441F551F220FCF
:10018000331F441F551F60E074E284EF90E00E942B
:100190002407E9012197B701A601CE010E946F0053
:1001A0000297F4F0E0ECF0E0808182608083D70178
:1001B000C6018E7F880F991FAA1FBB1F880F991F2A
:1001C000AA1FBB1F9C01AD01220F331F441F551FE7
:1001D00060E074E284EF90E00E942407E901219737
:1001E000C093C400D093C50088E18093C10086E02D
:1001F0008093C200B701A601CE010E946F0021E0EA
:1002000030E0029714F020E030E0C901DF91CF9197
:10021000FF90EF90DF90CF9008958093C600E0ECC0
:10022000F0E0808185FFFDCFE0ECF0E0808180622E
:10023000808308951F93CF93DF93EC0188818823F7
:1002400051F010E00E940D011F5FFE01E10FF11D52
:1002500080818111F7CFDF91CF911F910895CF93C6
:10026000DF93EC01FE012491222351F02196FC0141
:1002700084910E940D01CE01FE0124912111F6CF3F
:10028000DF91CF9108958F929F92AF92BF92CF92BC
:10029000DF92EF92FF920F931F93CF93DF936B0147
:1002A0007C01611571058105910521F480E30E94AF
:1002B0000D0145C099235CF4F094E094D094C0946F
:1002C000C11CD11CE11CF11C8DE20E940D011C140B
:1002D0001D041E041F04F4F40F2EFAE08F2E912C3F
:1002E000A12CB12CF02DC701B601A50194010E94EB
:1002F0004607022F132FD42FC52F80E3860F0E94AD
:100300005D00C02ED12EED2EFC2E1C141D041E04EB
:100310001F044CF3F0900401FF205CF0EF2DFF2749
:10032000E7FDF095E85AFE4F80810E940D01FA9496
:10033000ACF78FEF9FEF9093050180930401DF915D
:10034000CF911F910F91FF90EF90DF90CF90BF90D2
:10035000AF909F908F9008950F931F93F82F88234D
:10036000F9F0E1E061E070E080E090E0AB01BC0119
:10037000440F551F661F771F8A019B01000F111F35
:10038000221F331F000F111F221F331FCB01BA0181
:10039000600F711F821F931FEF5FFE1738F704C0B5
:1003A00061E070E080E090E01F910F9108954F921E
:1003B0005F926F927F928F929F92AF92BF92CF92F5
:1003C000DF92EF92FF920F931F93CF936B017C010B
:1003D000142F20E030E0A9010E945E05882334F448
:1003E000F7FAF094F7F8F094C1E001C0C0E0C7015B
:1003F000B6010E94CA054B015C0120E030E040E8F4
:100400005FE3C701B6010E94FA046B017C01C501DC
:10041000B4010E94FD059B01AC01C701B6010E9419
:10042000F9046B017C01812F0E94AC010E94FB0545
:10043000A70196010E94AD060E94CF0561157105C6
:100440008105910571F1C12CD12C76010F2EFAE0B6
:100450004F2E512C612C712CF02DCC0CDD1CEE1C80
:10046000FF1C97018601000F111F221F331F000F71
:10047000111F221F331FC00ED11EE21EF31EA30147
:1004800092010E942407C60ED71EE81EF91E622F95
:10049000732F842F952F6115710581059105E9F65C
:1004A00003C0C12CD12C7601CC2319F08DE20E941F
:1004B0000D01C501B4010E9443018EE20E940D01AD
:1004C000C701B6012AE030E040E050E00E94240776
:1004D000CA01B9012115310541055105E1F00F2E81
:1004E000FAE0CF2ED12CE12CF12CF02DA7019601B2
:1004F0000E942407B22E032F142FC52F80E3860FEE
:100500000E940D016B2D702F812F9C2F611571059D
:100510008105910559F7CF911F910F91FF90EF90B1
:10052000DF90CF90BF90AF909F908F907F906F9013
:100530005F904F900895CF93DF93CDB7DEB7498595
:100540005A854730510514F046E050E01416150660
:1005500014F042E050E06D817E818F8198850E9489
:10056000D701DF91CF91089587E880937A0080ECDE
:1005700080937C000895ECE7F0E090818F70982BD9
:100580009083EAE7F0E0808180648083808184FF4B
:10059000FDCFEAE7F0E08081806180838091780080
:1005A000909179000895EAE7F0E080818F77808369
:1005B00010927C00EBE7F0E080818064808384E02F
:1005C00080BF0895E4E6F0E08081877F8083B59A5C
:1005D00010928000E1E8F0E0108280818F7B8083C0
:1005E00080E280936F000895E1E8F0E09081987FC9
:1005F0009083823001F130F4882309F452C08130B5
:1006000041F008958430D9F140F1853009F449C0B2
:100610000895E1E8F0E080818160808380E090E0EF
:10062000A0E8BDE38093000190930101A093020133
:10063000B09303010895E1E8F0E080818260808357
:1006400080E090E0A0E0BFE380930001909301017F
:10065000A0930201B09303010895E1E8F0E08081E6
:100660008360808380E090E0A0E8B0E480930001A4
:1006700090930101A0930201B09303010895E1E872
:10068000F0E080818460808380E090E0A0E8B1E4C5
:100690008093000190930101A0930201B0930301A4
:1006A0000895E1E8F0E080818560808380E090E05B
:1006B000A0E8B2E48093000190930101A0930201AD
:1006C000B09303010895E1E8F0E08081887F8083A2
:1006D00008958AB1877E8AB98BB1877E8BB90895D8
:1006E0006AB121E030E0A901FC01008002C0440FA2
:1006F000551F0A94E2F7462B4AB94BB1008002C05D
:10070000220F331F0A94E2F7242B2BB908950E947D
:10071000BB029C01ACE4B4E00E946507DC01CB01A4
:10072000072E7AE0B695A795979587957A95D1F794
:10073000702D08951F93CF93DF93182FEB010E9424
:10074000B4024AB121E030E0C90102C0880F991F0C
:100750001A95E2F7942F982B9AB99BB1182F109500
:10076000812F89238BB980E00E948703C817D9079E
:10077000D0F32FEF80E792E0215080409040E1F7E6
:1007800000C000008AB118231AB9DF91CF911F91E0
:1007900008950F931F93CF93DF93182FEB010E94BF
:1007A00063030E94690362E370E082E00E949A039F
:1007B0000E94D3020E94E2021092850010928400EF
:1007C000CE010E947003812F0E94F40225C0B09BCD
:1007D00023C0B09A812F90E0019665E070E00E94FE
:1007E0001007182F86E091E00E941A01688170E0DE
:1007F00080E090E00E94430182E191E00E941A01B2
:10080000612F70E080E090E00E9443018AE491E073
:100810000E941A01812F05C0B59BD9CF0E946303A6
:1008200086E0DF91CF911F910F9108958F929F9253
:10083000AF92BF92CF92DF92EF92FF920F931F93EE
:10084000CF93DF9300D000D01F92CDB7DEB785E005
:10085000E2E5F1E0DE01119601900D928A95E1F753
:1008600081E005E011E0BE016F5F7F4F0E94C90388
:1008700081110EC099819430B1F7EDE4F1E0DE0111
:100880001196802F01900D928A95E1F7812FEBCF81
:10089000863049F7809086009090870020E034E20F
:1008A00044E759E4609100017091010180910201D7
:1008B000909103010E94AD066B017C01A12CB12C2B
:1008C000C501B4010E94FB059B01AC01C701B60143
:1008D0000E94AD066B017C016A817B818C819D81C8
:1008E0000E94FB0523E333E343E35FE30E94AD068D
:1008F0009B01AC01C701B6010E9462050E94CF05B1
:100900006B017C0182E291E00E941A01C501B401F1
:100910000E9443018AE291E00E941A018DE291E077
:100920000E941A01C701B6010E9443018AE391E0C7
:100930000E941A01C701B60128EE33E040E050E002
:100940000E942407CA01B9010E94430181E491E099
:100950000E941A011F9283E08F93C701B6010E9483
:10096000FB0520E034E244E759E40E9462059F93CE
:100970008F937F936F930E949B0288E491E00E9483
:100980001A010F900F900F900F900F900F900F90F3
:100990000F900F900F900F90DF91CF911F910F91BB
:1009A000FF90EF90DF90CF90BF90AF909F908F908F
:1009B000089560E875E280E090E00E94A70088E674
:1009C00090E00E942F010E94B402259A8AB1877E8E
:1009D0008AB98BB1877E8BB90E941604FDCF1F9216
:1009E0000F920FB60F9211240F900FBE0F901F9011
:1009F00018955058BB27AA270ED075C166D130F084
:100A00006BD120F031F49F3F11F41EF45BC10EF462
:100A1000E095E7FB51C1E92F77D180F3BA17620760
:100A200073078407950718F071F49EF58FC10EF4D3
:100A3000E0950B2EBA2FA02D0B01B90190010C01EE
:100A4000CA01A0011124FF27591B99F0593F50F406
:100A5000503E68F11A16F040A22F232F342F44275E
:100A6000585FF3CF469537952795A795F040539556
:100A7000C9F77EF41F16BA0B620B730B840BBAF026
:100A80009150A1F0FF0FBB1F661F771F881FC2F791
:100A90000EC0BA0F621F731F841F48F487957795A5
:100AA0006795B795F7959E3F08F0B3CF9395880F5C
:100AB00008F09927EE0F979587950895D9D008F4F7
:100AC00081E008950CD00FC107D140F0FED030F086
:100AD00021F45F3F19F0F0C0511139C1F3C014D1B6
:100AE00098F39923C9F35523B1F3951B550BBB27F5
:100AF000AA2762177307840738F09F5F5F4F220FA2
:100B0000331F441FAA1FA9F333D00E2E3AF0E0E89A
:100B100030D091505040E695001CCAF729D0FE2FE6
:100B200027D0660F771F881FBB1F26173707480778
:100B3000AB07B0E809F0BB0B802DBF01FF2793582E
:100B40005F4F2AF09E3F510568F0B6C000C15F3F7D
:100B5000ECF3983EDCF3869577956795B795F79516
:100B60009F5FC9F7880F911D9695879597F908950E
:100B7000E1E0660F771F881FBB1F621773078407AA
:100B8000BA0720F0621B730B840BBA0BEE1F88F7B9
:100B9000E095089504D06894B111D9C00895BCD0EF
:100BA00088F09F5790F0B92F9927B751A0F0D1F056
:100BB000660F771F881F991F1AF0BA95C9F712C0E0
:100BC000B13081F0C3D0B1E00895C0C0672F782F55
:100BD0008827B85F39F0B93FCCF38695779567954C
:100BE000B395D9F73EF490958095709561957F4FB8
:100BF0008F4F9F4F0895E89409C097FB3EF490955E
:100C00008095709561957F4F8F4F9F4F9923A9F0E5
:100C1000F92F96E9BB279395F69587957795679574
:100C2000B795F111F8CFFAF4BB0F11F460FF1BC0B8
:100C30006F5F7F4F8F4F9F4F16C0882311F096E94B
:100C400011C0772321F09EE8872F762F05C06623F9
:100C500071F096E8862F70E060E02AF09A95660FB2
:100C6000771F881FDAF7880F9695879597F908956B
:100C7000990F0008550FAA0BE0E8FEEF16161706AD
:100C8000E807F907C0F012161306E407F50798F015
:100C9000621B730B840B950B39F40A2661F0232B2E
:100CA000242B252B21F408950A2609F4A140A695AA
:100CB0008FEF811D811D089597F99F6780E870E08F
:100CC00060E008959FEF80EC089500240A941616C2
:100CD000170618060906089500240A94121613062A
:100CE000140605060895092E0394000C11F48823B8
:100CF00052F0BB0F40F4BF2B11F460FF04C06F5FD4
:100D00007F4F8F4F9F4F089557FD9058440F551FA9
:100D100059F05F3F71F04795880F97FB991F61F07D
:100D20009F3F79F087950895121613061406551FF4
:100D3000F2CF4695F1DF08C0161617061806991F60
:100D4000F1CF86957105610508940895E894BB2755
:100D500066277727CB0197F908950BD0C4CFB5DF6D
:100D600028F0BADF18F0952309F0A6CFABCF1124F5
:100D7000EECFCADFA0F3959FD1F3950F50E0551F3A
:100D8000629FF001729FBB27F00DB11D639FAA27E0
:100D9000F00DB11DAA1F649F6627B00DA11D661F2F
:100DA000829F2227B00DA11D621F739FB00DA11D50
:100DB000621F839FA00D611D221F749F3327A00D0A
:100DC000611D231F849F600D211D822F762F6A2FA6
:100DD00011249F5750408AF0E1F088234AF0EE0F2B
:100DE000FF1FBB1F661F771F881F91505040A9F738
:100DF0009E3F510570F060CFAACF5F3FECF3983E65
:100E0000DCF3869577956795B795F795E7959F5F9E
:100E1000C1F7FE2B880F911D9695879597F9089538
:100E200097FB072E16F4009407D077FD09D00E9497
:100E30007B0707FC05D03EF4909581959F4F089560
:100E4000709561957F4F0895A1E21A2EAA1BBB1BD6
:100E5000FD010DC0AA1FBB1FEE1FFF1FA217B30786
:100E6000E407F50720F0A21BB30BE40BF50B661F9C
:100E7000771F881F991F1A9469F760957095809560
:100E800090959B01AC01BD01CF010895052E97FB04
:100E90001EF400940E945D0757FD07D00E942407AE
:100EA00007FC03D04EF40C945D07509540953095A7
:100EB00021953F4F4F4F5F4F0895909580957095C6
:100EC00061957F4F8F4F9F4F0895A29FB001B39FB1
:100ED000C001A39F700D811D1124911DB29F700D43
:100EE000811D1124911D08950E946507B7FF089583
:100EF000821B930B0895AA1BBB1B51E107C0AA1FBD
:100F0000BB1FA617B70710F0A61BB70B881F991FAA
:100F10005A95A9F780959095BC01CD010895F89454
:020F2000FFCF01
:100F220000000040FFFF5265736973746F72203DC9
:100F320020002074696D65725F7370656564203D81
:100F4200200074696D696E673D0020200063617046
:100F520061636974616E63653D007046206F722043
:100F6200006E46206F72200075460D0A0003E803EA
:080F7200000004A0860100004C
:00000001FF
